:100000001FC037C036C035C040C033C032C031C059
:1000100030C02FC02EC02DC02CC02BC02AC029C07C
:1000200028C027C026C0003C243F00003D0000BC83
:10003000A4FC0000BCA4FC0000000000000026009E
:1000400011241FBECFEDCDBF10E0A0E6B0E0E2E08E
:10005000F1E002C005900D92A236B107D9F710E089
:10006000A2E6B0E001C01D92A336B107E1F73AD095
:1000700046C0C6CF07C0EFECF7E03197F1F700C0FC
:10008000000001970097B9F708951F920F920FB6DD
:100090000F9211242F933F938F939F93EF93FF938E
:1000A0002091620030E080916000909161002817FB
:1000B000390714F01092620080916200E82FF0E09E
:1000C000EA5DFF4FE491E8BB8F5F80936200FF9190
:1000D000EF919F918F913F912F910F900FBE0F90B5
:1000E0001F9018958FEF87BB89E08EBD80E197E266
:1000F0009BBD8ABD89B7806489BF7894FFCFF8948F
:02010000FFCF2F
:020102001800E3
:00000001FF
