:100000002BC043C042C041C04CC03FC03EC03DC0F9
:100010003CC03BC03AC039C038C037C036C035C01C
:1000200034C033C032C0FFDBDBDBDB001F18F81845
:100030001F00FFDBDBDBDB00FFDBDBDFF800FFDBD0
:10004000DBDBDB00FF1B1B1BFF00FF03FF03FF00CD
:10005000000000000026000011241FBECFEDCDBF20
:1000600010E0A0E6B0E0EAE1F1E002C005900D92F8
:10007000A236B107D9F710E0A2E6B0E001C01D92A8
:10008000A336B107E1F73AD046C0BACF07C0EFECCC
:10009000F7E03197F1F700C0000001970097B9F73A
:1000A00008951F920F920FB60F9211242F933F9332
:1000B0008F939F93EF93FF932091620030E08091A4
:1000C0006000909161002817390714F010926200C7
:1000D00080916200E82FF0E0EA5DFF4FE491E8BB19
:1000E0008F5F80936200FF91EF919F918F913F917D
:1000F0002F910F900FBE0F901F9018958FEF87BB19
:1001000089E08EBD80E197E29BBD8ABD89B780649E
:0A01100089BF7894FFCFF894FFCF69
:02011A002F00B4
:00000001FF
