:100000002AC042C041C040C04BC03EC03DC03CC001
:100010003BC03AC039C038C037C036C035C034C024
:1000200033C032C031C0000000CEDFFB73000000DF
:10003000E7E73C183CE7E7000000CEDFFB330000B9
:1000400000071FFCE07878E0FC1F070000000000BC
:1000500000000000260011241FBECFEDCDBF10E030
:10006000A0E6B0E0E8E1F1E002C005900D92A23612
:10007000B107D9F710E0A2E6B0E001C01D92A336A7
:10008000B107E1F73AD046C0BBCF07C0EFECF7E0CD
:100090003197F1F700C0000001970097B9F7089574
:1000A0001F920F920FB60F9211242F933F938F93AD
:1000B0009F93EF93FF932091620030E08091600066
:1000C000909161002817390714F010926200809116
:1000D0006200E82FF0E0EA5DFF4FE491E8BB8F5F3C
:1000E00080936200FF91EF919F918F913F912F91AB
:1000F0000F900FBE0F901F9018958FEF87BB89E070
:100100008EBD80E197E29BBD8ABD89B7806489BFBF
:080110007894FFCFF894FFCFB3
:020118002E00B7
:00000001FF
