:1000000036C04EC04DC04CC057C04AC049C048C0A1
:1000100047C046C045C044C043C042C041C040C0C4
:100020003FC03EC03DC0C3FFFFC30000000E1F3FE6
:100030007FFEFE7F3F1F0E000000FFFF0E3CF0F032
:100040003C0EFFFF0060F49494FCF88000FFFF304A
:1000500078FCCC800078FCD4D4DC5800000EDFDFC4
:100060000E00000000000000000000002600112427
:100070001FBECFEDCDBF10E0A0E6B0E0E0E3F1E0C1
:1000800002C005900D92A236B107D9F710E0A2E6A2
:10009000B0E001C01D92A336B107E1F73AD046C0E7
:1000A000AFCF07C0EFECF7E03197F1F700C00000E9
:1000B00001970097B9F708951F920F920FB60F920C
:1000C00011242F933F938F939F93EF93FF9320914E
:1000D000620030E08091600090916100281739073C
:1000E00014F01092620080916200E82FF0E0EA5D67
:1000F000FF4FE491E8BB8F5F80936200FF91EF9127
:100100009F918F913F912F910F900FBE0F901F9055
:1001100018958FEF87BB89E08EBD80E197E29BBD8C
:100120008ABD89B7806489BF7894FFCFF894FFCFE8
:02013000460087
:00000001FF
