:100000002DC045C044C043C04EC041C040C03FC0E9
:100010003EC03DC03CC03BC03AC039C038C037C00C
:1000200036C035C034C0FFFF0E3CF0F03C0EFFFF81
:100030000060F49494FCF88000FFFF3078FCCC80E2
:100040000078FCD4D4DC580000000EDFDF0E000086
:1000500000000000000000000026000011241FBE68
:10006000CFEDCDBF10E0A0E6B0E0EEE1F1E002C0E0
:1000700005900D92A236B107D9F710E0A2E6B0E0E4
:1000800001C01D92A336B107E1F73AD046C0B8CF00
:1000900007C0EFECF7E03197F1F700C000000197DF
:1000A0000097B9F708951F920F920FB60F9211247F
:1000B0002F933F938F939F93EF93FF932091620031
:1000C00030E080916000909161002817390714F0AA
:1000D0001092620080916200E82FF0E0EA5DFF4F2D
:1000E000E491E8BB8F5F80936200FF91EF919F9155
:1000F0008F913F912F910F900FBE0F901F901895E9
:100100008FEF87BB89E08EBD80E197E29BBD8ABD02
:0E01100089B7806489BF7894FFCFF894FFCF41
:02011E003300AC
:00000001FF
