:1000000012C02AC029C028C033C026C025C024C0C1
:1000100023C022C021C020C01FC01EC01DC01CC0E4
:100020001BC01AC019C011241FBECFEDCDBF10E0F8
:10003000A0E6B0E0ECEEF0E002C005900D92AC3A24
:10004000B107D9F710E0ACEAB0E001C01D92AD3ABB
:10005000B107E1F73CD048C0D3CF07C0EFECF7E0E1
:100060003197F1F700C0000001970097B9F70895A4
:100070001F920F920FB60F9211242F933F938F93DD
:100080009F93EF93FF932091AC0030E0809160004C
:10009000909161002817390714F01092AC008091FC
:1000A000AC00E82FF0E0EE0FFF1FEE59FF4F9081FC
:1000B00098BB8F5F8093AC00FF91EF919F918F91E0
:1000C0003F912F910F900FBE0F901F9018958FEFBB
:1000D00087BB89E08EBD80E197E29BBD8ABD89B771
:0C00E000806489BF7894FFCFF894FFCFB4
:1000EC0025003C00040038000400380000003D00EE
:1000FC0000003C0004000400380000003D0000003B
:10010C00FC00240024001800000018002400240027
:10011C00180000000400380010000C0000002F0034
:0C012C00000000000000000000000000C7
:00000001FF
