:1000000012C02AC029C028C033C026C025C024C0C1
:1000100023C022C021C020C01FC01EC01DC01CC0E4
:100020001BC01AC019C011241FBECFEDCDBF10E0F8
:10003000A0E6B0E0ECEEF0E002C005900D92A4372F
:10004000B107D9F710E0A4E7B0E001C01D92A537D1
:10005000B107E1F73CD048C0D3CF07C0EFECF7E0E1
:100060003197F1F700C0000001970097B9F70895A4
:100070001F920F920FB60F9211242F933F938F93DD
:100080009F93EF93FF932091740030E08091600084
:10009000909161002817390714F010927400809134
:1000A0007400E82FF0E0EE0FFF1FEE59FF4F908134
:1000B00098BB8F5F80937400FF91EF919F918F9118
:1000C0003F912F910F900FBE0F901F9018958FEFBB
:1000D00087BB89E08EBD80E197E29BBD8ABD89B771
:0C00E000806489BF7894FFCFF894FFCFB4
:1000EC0009000000000000000000000000000000FB
:0400FC000000000000
:00000001FF
